:020000040000fa
:080000000001040000000000f3
:020000040000fa
:10020000cf8120000eff20000e01880000000000ba
:100210000c00070000612000010020001100070011
:10022000000020000000e000020032000000020098
:1002300000000000a2050200000000000040da00fb
:100240000000fe004440a900400120000000e00042
:100250000300320000002000a00188004440a800f4
:100260000000060091018800800078000000eb008b
:1002700015003700e280400032a0b4009101ba00be
:10028000e280400032a0b4009102ba00e280400057
:1002900032a0b4000002eb00472bde00f507b200ed
:1002a000602ce10004003a000059eb008301e900f2
:1002b000fdff3e00040037006128e100010032002c
:1002c0000082eb00040007001101ba000200e00008
:1002d000e8ff3a00000006003159ba008301e90046
:1002e0000c0032002159ba008301e90008003200f5
:1002f0000400e00003003a00e280400032a0b400b5
:10030000f5ff370011d9ba008301e900faff3a007e
:100310008100e800e180400032a0b4000000060047
:080320000040da000000fe00bd
:020000040000fa
:1000080090010000900100009001000090010000a4
:100018009001000090010000900100009001000094
:10002800900100009001000090010000fa02000019
:100038009001000090010000220300006a03000004
:1000480090010000ce0300009001000010050000a0
:100058009001000090010000900100009001000054
:100068009001000090010000900100009001000044
:100078009001000090030000900100009001000032
:100088009001000090010000900100009001000024
:100098009001000090010000900100009001000014
:1000a8009001000090010000900100009001000004
:1000b80090010000900100009001000090010000f4
:1000c80090010000900100009001000090010000e4
:1000d80090010000900100009001000090010000d4
:1000e80090010000900100009001000090010000c4
:0800f8009001000090010000de
:020000040000fa
:1001080090010000900100009001000090010000a3
:100118009001000090010000900100009001000093
:10012800900100009001000090010000fa02000018
:100138009001000090010000220300006a03000003
:1001480090010000ce03000090010000100500009f
:100158009001000090010000900100009001000053
:100168009001000090010000900100009001000043
:100178009001000090030000900100009001000031
:100188009001000090010000900100009001000023
:100198009001000090010000900100009001000013
:1001a8009001000090010000900100009001000003
:1001b80090010000900100009001000090010000f3
:1001c80090010000900100009001000090010000e3
:1001d80090010000900100009001000090010000d3
:1001e80090010000900100009001000090010000c3
:0801f8009001000090010000dd
:020000040000fa
:1003280020200000202000002020000020200000c5
:1003380020200000202000002020000020000000d5
:080348000d0a00000000000096
:020000040000fa
:100350000000fa00f001200040158800301e200047
:10036000301688000000240060168800600020001d
:100370009016880000102000c01688000000eb00d6
:10038000f0168800d602a8000080fa0000000600df
:100390000000fa0030002800000e880050f0200015
:1003a000400e88000000eb00b00e88000000eb005b
:1003b000d00e8800f0e12400200e880010112100ea
:1003c000a00e88000080fa00000006000200fa007b
:1003d000000f7800100020009e0f100003003a006c
:1003e000dca2a800e2c2a9000a0037001e00e0005b
:1003f00003003a00dca2a900e2c2a8000500370011
:10040000300020009e0f100002003a00dca2a9007c
:10041000e2c2a9000080fa00000006000200fa0013
:10042000000f7800100020009e0f100003003a001b
:10043000dc22a900dc42a8000a0037001e00e00010
:1004400003003a00dc22a800dc42a90005003700c6
:10045000300020009e0f100002003a00dc22a900ac
:10046000dc42a9000080fa00000006000000fa004b
:100470000000eb00200888000000eb000008880066
:10048000d0b82500100888000421a90041102000e0
:100490009140780000c3b30000c0700004e1b700d1
:1004a0005109200091407800f0c8b30000c06000fe
:1004b0000044a00095e0b7008460a9008c60a8000b
:1004c00005e1a9000080fa00000006000000fa0023
:1004d0000000eb00800888000000eb003008880076
:1004e000d0b82500600888001021a9000111200063
:1004f0009140780000c3b30000c0700010e1b70065
:10050000710920009140780080cfb30000c06000e6
:100510000004a00097e0b70084c0a9008cc0a80028
:1005200011e1a9001061a9000080fa000000060096
:100530000000fa000000eb00900888000000eb00cb
:1005400050088800104e2e00700888001221a90063
:10055000211120009140780000c3b30000c070005a
:1005600012e1b7007109200091407800f0c8b30093
:1005700000c060000044a00097e0b70084e0a9003c
:100580008ce0a80013e1a8000080fa00000006003b
:100590000000fa000000eb00f00888000000eb000b
:1005a000a0088800104e2e00d00888001e21a90047
:1005b000e11120009140780000c3b30000c070003a
:1005c0001ee1b700e109200091407800f0c8b300b7
:1005d00000c060000044a0009ee0b70086a0a90013
:1005e0008ea0a8001fe1a9001e61a9000080fa00ea
:1005f00000000600801f78003400f8000000200092
:10060000a00188000000fa008460a900c0408000ba
:100610000000e800c0408800cac2bf00704060000f
:100620000004e00002003200ca82a9000100370085
:10063000ca82a8000080fa003400f9004f00780058
:10064000004006003600f800809fbe00829fbe007a
:10065000849fbe00869fbe003400f800000020008a
:10066000a00188000000fa0084c0a90040192800f9
:10067000a5000700504080007000070040192800c6
:10068000a1000700604080006c00070040192800ae
:100690009d00070070408000680007004019280096
:1006a000990007008040800064000700401a28007d
:1006b000950007000080fa003400f9004f03be00e7
:1006c0004f02be004f01be004f00be003600f900d1
:1006d000004006003600f800809fbe00829fbe00ea
:1006e000849fbe00869fbe003400f80000002000fa
:1006f000a00188000000fa0084e0a900f4000700cf
:100700000080fa003400f9004f03be004f02be0023
:100710004f01be004f00be003600f9000040060049
:100720003400f800881f780008002000a801880025
:100730004f0478000000fa0086a0a9000080fa00ab
:100740003400f900004006000000fa000003200019
:10075000a01088000d42a9000ec2bf00f043b200f5
:100760000ee2b7008109200091407800f0c8b30084
:1007700000c0600001c4b3000140700098e0b70001
:100780000e22a9008520a9008d20a8000de2a80056
:100790000f42a8000080fa0000000600801f7800c9
:1007a0000000fa000ec2bf00624060000004e000da
:1007b000020032000e22a9000a0037000ec2bf005c
:1007c000644060000004e00006003a000ec2bf0072
:1007d000684060000004e00002003a0090108000d1
:1007e00014e8b7008520a9000080fa004f007800c7
:1007f000004006000200fa00000f78000fc2bf00a0
:10080000614060000004e000fcff32000cc2bf0049
:1008100066406000e64f500003003a001e0078007a
:100820008010880003003700f00f20001e006000d9
:10083000801088000080fa00000006000400fa0022
:10084000100798001e009000823e20001100090051
:100850000280d800004f78001e80fb000003b0002b
:10086000e4ff07009e80fb00803e20000088b90066
:10087000800078001e0090000100500010079800d2
:100880001e00900042062000110009000280d800de
:10089000004f78001e80fb000003b000d5ff07006a
:1008a0009e80fb00400620000088b9008000780090
:1008b0001e00900001005000100798001e009000dc
:1008c000a2002000110009000280d800004f78002b
:1008d0001e80fb000003b000c6ff07001e80fb0067
:1008e0006a00b900800078001e00900001005000ee
:1008f000100798001e0090000003b000bdff070025
:100900000080fa00000006000200fa00000f7800e4
:10091000050037001e007800104078000000fb0042
:100920001e0fe800b3ff07001e007800104078009b
:100930000004e000f7ff3a000080fa000000060023
:100940000000fa00a1a2a900112a2000914078001d
:10095000c0cfb30000c06000a1e2b700012a2000b0
:100960009140780000ceb30000c07000a0e2b70054
:10097000a022a800312a20009140780000ceb300c8
:1009800000c07000a3e2b700a342a800212a200003
:100990009140780030ccb30000c06000c040b3008c
:1009a000a2e2b700a222a900a202a900a5c2bf002c
:1009b000f041b300a5e2b700a4e2a800412a20005c
:1009c0009140780000ccb30000c06000f041b3005b
:1009d000a4e2b700a782a900a682a900612a20008c
:1009e0009140780000cfb30000c06000a6e2b700dd
:1009f000712a20009140780000cfb30000c0600051
:100a0000a7e2b700001e200050158800a042a800f1
:100a10008560a8008d60a8000080fa000000060034
:100a20003600f800809fbe00829fbe00849fbe00fb
:100a3000869fbe003400f80000002000a00188005e
:100a40000000fa000014800050408800101480005c
:100a500060408800201480007040880030148000be
:100a600080408800090007008560a9000080fa0026
:100a70003400f9004f03be004f02be004f01be001c
:100a80004f00be003600f900004006000000fa00ea
:100a9000d040800061fe0700d04080004bfe070080
:100aa0005140800060408000008040006a00b90032
:100ab000b00e8800714080008040800000804000bf
:100ac0006a00b900d00e88000080fa00000006001d
:100ad0000000fa0071408000c02b2000808f500081
:100ae00004003400b04080000000e800b0408800fe
:100af000020037000000eb00b04088000080fa00e0
:100b0000000006000000fa00b0408000e60f500030
:100b10000a003a000000eb00b0408800d04080009e
:100b20000000e000030032000000eb00d04088002d
:100b30000200370010002000d04088000080fa003a
:100b4000000006000400fa0001fe070010fe070086
:100b500046fe07005dfe070075fe07008cfe0700dd
:100b6000f9fe070076ff0700a1e2a8000000eb00f5
:100b7000100798000000eb00000f7800000037001d
:100b8000e0ff0700c8c2bf00614060000004e00051
:100b900007003a001e0090000000e00004003a0048
:100ba000100020001007980011e1a800090037008c
:100bb000c8c2bf00614060000004e00005003200d0
:100bc0001e009000e10f500002003a000000eb0010
:100bd00010079800c8c2bf00624060000004e00037
:100be00005003a001e00e00003003a00100020005b
:100bf000000f7800e2ff3700c8c2bf00624060000b
:100c00000004e000deff3200100020009e0f100004
:100c1000dbff3a000000eb00000f7800d8ff370040
:020000040000fa
:100c2000160800000600000002000000000000009e
:100c30000000000000080000160000000000000096
:040c400000000000b0
:00000001FF
