:020000040000fa
:080000000002040000000000f2
:020000040000fa
:100400000f8120000ebf22000e01880000000000b6
:100410000c00070080972000010020001100070059
:10042000000020000000e000020032000000020096
:100430000000000006090200000000000040da0091
:100440000000fe004440a900400020000000e00041
:100450000300320000002000a00188004440a800f2
:100460000000060091018800800078000000eb0089
:1004700015003700e280400032a0b4009101ba00bc
:10048000e280400032a0b4009102ba00e280400055
:1004900032a0b4000002eb00472bde00f507b200eb
:1004a000602ce10004003a000059eb008301e900f0
:1004b000fdff3e00040037006128e100010032002a
:1004c0000082eb00040007001101ba000200e00006
:1004d000e8ff3a00000006003159ba008301e90044
:1004e0000c0032002159ba008301e90008003200f3
:1004f0000400e00003003a00e280400032a0b400b3
:10050000f5ff370011d9ba008301e900faff3a007c
:100510008100e800e180400032a0b4000000060045
:080520000040da000000fe00bb
:020000040000fa
:1000080090020000900200009002000090020000a0
:100018009002000090020000900200009002000090
:1000280090020000900200009002000058030000b7
:100038009002000090020000900200009002000070
:100048009002000090020000900200009002000060
:100058009002000090020000900200009002000050
:100068009002000090020000900200009002000040
:100078009002000090020000900200009002000030
:100088009002000090020000900200009002000020
:100098009002000090020000900200009002000010
:1000a8009002000090020000900200009002000000
:1000b80090020000900200009002000090020000f0
:1000c80090020000900200009002000090020000e0
:1000d80090020000900200009002000090020000d0
:1000e80090020000900200009002000090020000c0
:1000f80090020000900200009002000090020000b0
:10010800900200009002000090020000900200009f
:10011800900200009002000090020000900200008f
:10012800900200009002000090020000900200007f
:10013800900200009002000090020000900200006f
:10014800900200009002000090020000900200005f
:10015800900200009002000090020000900200004f
:10016800900200009002000090020000900200003f
:10017800900200009002000090020000900200002f
:10018800900200009002000090020000900200001f
:10019800900200009002000090020000900200000f
:1001a80090020000900200009002000090020000ff
:1001b80090020000900200009002000090020000ef
:1001c80090020000900200009002000090020000df
:1001d80090020000900200009002000090020000cf
:1001e80090020000900200009002000090020000bf
:0801f8009002000090020000db
:020000040000fa
:10020800900200009002000090020000900200009e
:10021800900200009002000090020000900200008e
:1002280090020000900200009002000058030000b5
:10023800900200009002000090020000900200006e
:10024800900200009002000090020000900200005e
:10025800900200009002000090020000900200004e
:10026800900200009002000090020000900200003e
:10027800900200009002000090020000900200002e
:10028800900200009002000090020000900200001e
:10029800900200009002000090020000900200000e
:1002a80090020000900200009002000090020000fe
:1002b80090020000900200009002000090020000ee
:1002c80090020000900200009002000090020000de
:1002d80090020000900200009002000090020000ce
:1002e80090020000900200009002000090020000be
:1002f80090020000900200009002000090020000ae
:10030800900200009002000090020000900200009d
:10031800900200009002000090020000900200008d
:10032800900200009002000090020000900200007d
:10033800900200009002000090020000900200006d
:10034800900200009002000090020000900200005d
:10035800900200009002000090020000900200004d
:10036800900200009002000090020000900200003d
:10037800900200009002000090020000900200002d
:10038800900200009002000090020000900200001d
:10039800900200009002000090020000900200000d
:1003a80090020000900200009002000090020000fd
:1003b80090020000900200009002000090020000ed
:1003c80090020000900200009002000090020000dd
:1003d80090020000900200009002000090020000cd
:1003e80090020000900200009002000090020000bd
:0803f8009002000090020000d9
:020000040000fa
:080528000d0a000000000000b4
:020000040000fa
:100530000000fa000080eb00101888000080eb003b
:10054000201888000080eb00001788000000eb00f6
:10055000401788000000eb00801788000000eb00c7
:10056000001688000080eb00c01688000080fa00aa
:10057000000006000000fa00f5a2a800314080004b
:1005800010032000808f5000fcff34000000eb00bf
:1005900030408800f5a2a9003140800010032000ff
:1005a000808f5000fcff34000000eb0030408800da
:1005b0000080fa00000006000000fa00e442a800f3
:1005c0004140800010032000808f5000fcff340069
:1005d0000000eb0040408800e442a9000080fa00df
:1005e000000006000400fa00100798000000eb006d
:1005f000000f7800100037009e0090001e00780069
:100600000008de0061406000614060006140600001
:10061000614060004401dd00412e200091407800df
:10062000f0ceb30000c0600002407000e4e2b7000a
:10063000d0ff07001e0fe800700020009e0f100082
:10064000edff3400dcff07000080fa000000060028
:100650000000fa0005e1a9000421a90004c1a900d5
:100660004110200091407800f0ccb30000c0600041
:1006700004e1b7000000eb0000088800001720002c
:1006800010088800510a200091407800f0c8b3009b
:1006900000c060000044a000a5e0b7008460a9008d
:1006a0009460a80005e1a8000080fa0000000600a0
:1006b000801f78000000fa00004080000000e80081
:1006c00000408800104080000000e80010408800d2
:1006d000204080000000e80020408800304080007a
:1006e0000000e80030408800404080000000e80042
:1006f000404088008460a9000080fa004f00780024
:10070000004006000000fa00dce2a8001140800072
:1007100070382100808f5000fcff34000000eb0097
:1007200010408800dce2a9000080fa00000006000a
:100730000000fa00e422a800114080007038210077
:10074000808f5000fcff34000000eb001040880058
:10075000e422a9000080fa00000006000000fa0070
:10076000f5c2a8001140800070382100808f500031
:10077000fcff34000000eb0010408800f5c2a90027
:100780000080fa00000006000000fa00f582a800d0
:100790001140800070382100808f5000fcff340031
:1007a0000000eb0010408800f582a9000080fa00ec
:1007b000000006000000fa000000eb0089ff0700bf
:1007c0000000eb00104088000080fa0000000600e6
:1007d0000000fa000000eb0082ff070011408000db
:1007e00070382100808f5000fcff34000000eb00c7
:1007f00010408800c3ff07000004200079ff0700b5
:100800001140800070382100808f5000fcff3400c0
:100810000000eb00104088000008200071ff070076
:100820001140800070382100808f5000fcff3400a0
:100830000000eb0010408800deff0700bcff07004f
:100840000001200067ff0700114080007038210080
:10085000808f5000fcff34000000eb001040880047
:10086000000220005fff0700114080007038210067
:10087000808f5000fcff34000000eb001040880027
:10088000ccff0700b5ff07004000200055ff070020
:100890001140800070382100808f5000fcff340030
:1008a0000000eb0010408800800020004dff070092
:1008b0001140800070382100808f5000fcff340010
:1008c0000000eb0010408800baff0700aeff0700f1
:1008d0001000200043ff0700114080007038210005
:1008e000808f5000fcff34000000eb0010408800b7
:1008f000200020003bff07001140800070382100dd
:10090000808f5000fcff34000000eb001040880096
:100910000000eb0033ff0700114080007038210019
:10092000808f5000fcff34000000eb001040880076
:10093000200020002bff07001140800070382100ac
:10094000808f5000fcff34000000eb001040880056
:100950001000200023ff07001140800070382100a4
:10096000808f5000fcff34000000eb001040880036
:1009700090ff070084ff07008000200019ff070098
:100980001140800070382100808f5000fcff34003f
:100990000000eb00104088004000200011ff07001d
:1009a0001140800070382100808f5000fcff34001f
:1009b0000000eb00104088007eff070067ff070083
:1009c0000002200007ff070011408000703821005e
:1009d000808f5000fcff34000000eb0010408800c6
:1009e00000012000fffe0700114080007038210048
:1009f000808f5000fcff34000000eb0010408800a6
:100a00006cff07004aff070000082000f5fe070002
:100a10001140800070382100808f5000fcff3400ae
:100a20000000eb001040880000042000edfe0700ed
:100a30001140800070382100808f5000fcff34008e
:100a40000000eb00104088005aff07002dff070050
:100a50000080fa00000006000000fa00700120008b
:100a60004011880021e2a8002342a8000080fa007b
:100a7000000006000200fa00000f780023c2bf0049
:100a8000614060000004e000fcff320020c2bf00b3
:100a900066406000e64f500003003a001e007800f8
:100aa0002011880003003700f00f20001e006000b6
:100ab000201188000080fa00000006000200fa0001
:100ac000000f7800050037001e0078001040780005
:100ad0000000fb001e0fe800e6ff07001e00780084
:100ae000104078000004e000f7ff3a000080fa00b0
:100af000000006000000fa0022c2bf006240600051
:100b00000004e000020032002222a9000a0037009f
:100b100022c2bf00644060000004e00006003a000a
:100b200022c2bf00684060000004e00002003a00fa
:100b3000301180000ee8b7000080fa0000000600c7
:100b40000400fa00100798001e009000823e20006a
:100b5000110009000280d800004f78001e80fb00c1
:100b60000003b000c3ff07009e80fb00803e200012
:100b70000088b900800078001e009000010050003d
:100b8000100798001e009000420620001100090086
:100b90000280d800004f78001e80fb000003b000e8
:100ba000b4ff07009e80fb00400620000088b900cb
:100bb000800078001e00900001005000100798008f
:100bc0001e009000a2002000110009000280d80041
:100bd000004f78001e80fb000003b000a5ff070057
:100be0001e80fb006a00b900800078001e009000a3
:100bf00001005000100798001e0090000003b00094
:100c00009cff07000080fa00000006000000fa00c8
:100c1000edc2bf00704060000004e00023003a0015
:100c2000edc2bf000042b2000004e0001f003a0025
:100c3000c4c2bf00624060000004e0001b003a0034
:100c4000dbc2bf000044b2000004e0000d003a0027
:100c5000604080000000e0000a003a001000200020
:100c600060408800504080007a004000504088007a
:100c700050408000b2ff0700402928008fff070086
:100c80001a013700dbc2bf000044b2000004e000dc
:100c90001601320060408000e10f500013013a005d
:100ca0000000eb006040880010013700edc2bf007b
:100cb000704060000004e00023003a00edc2bf0075
:100cc0000042b2000004e0001f003a00c4c2bf00ae
:100cd000624060000004e0001b003200dbc2bf0085
:100ce0000044b2000004e0000d003a0060408000c3
:100cf0000000e0000a003a00100020006040880078
:100d0000504080007b0040005040880050408000f0
:100d10008bff07004029280068ff0700f300370019
:100d2000dbc2bf000044b2000004e000ef0032006c
:100d300060408000e10f5000ec003a000000eb0042
:100d400060408800e9003700edc2bf0070406000dd
:100d50000004e00023003a00edc2bf000042b200f0
:100d60000004e0001f003200c4c2bf006240600007
:100d70000004e0001b003a00dbc2bf000044b200e8
:100d80000004e0000d003a00604080000000e00038
:100d90000a003a00100020006040880050408000a7
:100da0007c004000504088005040800064ff0700f5
:100db0004029280041ff0700cc003700dbc2bf00fc
:100dc0000044b2000004e000c8003200604080002f
:100dd000e10f5000c5003a000000eb0060408800c1
:100de000c2003700edc2bf00704060000004e000a8
:100df00023003a00edc2bf000042b2000004e00050
:100e00001f003200c4c2bf00624060000004e00066
:100e10001b003200dbc2bf000044b2000004e0004f
:100e20000d003a00604080000000e0000a003a0037
:100e30001000200060408800504080007d0040008d
:100e400050408800504080003dff070040292800a6
:100e50001aff0700a5003700dbc2bf000044b20044
:100e60000004e000a100320060408000e10f50006b
:100e70009e003a000000eb00604088009b003700b5
:100e8000edc2bf00704060000004e00023003200ab
:100e9000edc2bf000042b2000004e0001f003a00b3
:100ea000c4c2bf00624060000004e0001b003a00c2
:100eb000dbc2bf000044b2000004e0000d003a00b5
:100ec000604080000000e0000a003a0010002000ae
:100ed00060408800504080007e0040005040880004
:100ee0005040800016ff070040292800f3fe07004d
:100ef0007e003700dbc2bf000044b2000004e00007
:100f00007a00320060408000e10f500077003a0024
:100f10000000eb006040880074003700edc2bf00a5
:100f2000704060000004e00023003200edc2bf000a
:100f30000042b2000004e0001f003a00c4c2bf003b
:100f4000624060000004e0001b003200dbc2bf0012
:100f50000044b2000004e0000d003a006040800050
:100f60000000e0000a003a00100020006040880005
:100f7000504080007f00400050408800504080007a
:100f8000effe070040292800ccfe0700570037007d
:100f9000dbc2bf000044b2000004e0005300320096
:100fa00060408000e10f500050003a000000eb006c
:100fb000604088004d003700edc2bf007040600007
:100fc0000004e00023003200edc2bf000042b20086
:100fd0000004e0001f003a00c4c2bf00624060008d
:100fe0000004e0001b003200dbc2bf000044b2007e
:100ff0000004e0000d003a00604080000000e000c6
:101000000a003a0010002000604088005040800034
:101010000002b0005040880050408000c8fe070029
:1010200040292800a5fe070030003700dbc2bf00c2
:101030000044b2000004e0002c0032006040800058
:10104000e10f500029003a000000eb0060408800ea
:1010500026003700edc2bf00704060000004e000d1
:1010600022003200edc2bf000042b2000004e000e6
:101070001e003a00c4c2bf00624060000004e000ed
:101080001a003200dbc2bf000044b2000004e000de
:101090000d003a00604080000000e0000a003a00c5
:1010a0001000200060408800504080001002b00016
:1010b0005040880050408000a1fe070040292800d1
:1010c0007efe070009003700dbc2bf000044b2000b
:1010d0000004e0000500320060408000e10f500095
:1010e00002003a000000eb00604088000080fa0037
:1010f000000006000400fa00000f78001e007800cf
:10110000100798001e009000e30f500026003200e8
:101110001e009000e30f50000a003c001e009000eb
:10112000e10f5000180032001e009000e10f500047
:1011300019003c001e0090000000e0000e0032008c
:101140002d0037001e009000e50f50001e003200f9
:101150001e009000e50f5000170035001e009000a3
:10116000e60f50001c0032001e009000e70f5000f8
:101170001d00320020003700ed82a900eda2a90079
:10118000c422a9001f003700ed82a900eda2a9002a
:10119000c422a8001b003700ed82a900eda2a80020
:1011a000c422a90017003700ed82a900eda2a80013
:1011b000c422a80013003700ed82a800eda2a90008
:1011c000c422a9000f003700ed82a800eda2a900fb
:1011d000c422a8000b003700ed82a800eda2a800f1
:1011e000c422a90007003700ed82a800eda2a800e4
:1011f000c422a80003003700ed82a800eda2a800d9
:10120000c422a8000080fa00000006000400fa00d2
:10121000c7fc07000efd07000ffe0700ed82a900c6
:10122000eda2a900c422a9000000eb00100798005d
:101230000000eb00000f78000000370073fe07008d
:10124000e3c2bf00614060000004e00009003a0012
:101250001e0090000000e00006003a001000200090
:1012600010079800ed82a900eda2a900c422a800f1
:1012700009003700e3c2bf00614060000004e000e5
:10128000050032001e009000e10f500002003a00fd
:101290000000eb0010079800e3c2bf00624060004e
:1012a0000004e00008003a001e00e00006003a00da
:1012b00010002000000f7800ed82a900eda2a80028
:1012c000c422a900ddff3700e3c2bf006240600016
:1012d0000004e000d9ff3200100020009e0f100033
:1012e000d6ff3a000000eb00000f7800d3ff370074
:020000040000fa
:1012f000000800000e0000000200000000000000d6
:1013000000000000000000000000000000000000dd
:101310000e080000020000000000000000000000b5
:00000001FF
