:020000040000fa
:080000000001040000000000f3
:020000040000fa
:100200008f8120000eff20000e01880000000000fa
:100210000c000700a06c2000010020001100070066
:10022000000020000000e000020032000000020098
:10023000000000004a060200000000000040da0052
:100240000000fe004440a900e00220000000e000a1
:100250000300320000002000a00188004440a800f4
:100260000000060091018800800078000000eb008b
:1002700015003700e280400032a0b4009101ba00be
:10028000e280400032a0b4009102ba00e280400057
:1002900032a0b4000002eb00472bde00f507b200ed
:1002a000602ce10004003a000059eb008301e900f2
:1002b000fdff3e00040037006128e100010032002c
:1002c0000082eb00040007001101ba000200e00008
:1002d000e8ff3a00000006003159ba008301e90046
:1002e0000c0032002159ba008301e90008003200f5
:1002f0000400e00003003a00e280400032a0b400b5
:10030000f5ff370011d9ba008301e900faff3a007e
:100310008100e800e180400032a0b4000000060047
:080320000040da000000fe00bd
:020000040000fa
:1000080090010000900100009001000090010000a4
:100018009001000090010000900100009001000094
:10002800900100009001000090010000c40200004f
:100038009001000090010000ec020000180300008d
:100048009001000082030000900100009001000070
:100058009001000090010000900100009001000054
:100068009001000090010000900100009001000044
:100078009001000032030000900100009001000090
:100088009001000090010000900100009001000024
:100098009001000090010000900100009001000014
:1000a8009001000090010000900100009001000004
:1000b80090010000900100009001000090010000f4
:1000c80090010000900100009001000090010000e4
:1000d80090010000900100009001000090010000d4
:1000e80090010000900100009001000090010000c4
:0800f8009001000090010000de
:020000040000fa
:1001080090010000900100009001000090010000a3
:100118009001000090010000900100009001000093
:10012800900100009001000090010000c40200004e
:100138009001000090010000ec020000180300008c
:10014800900100008203000090010000900100006f
:100158009001000090010000900100009001000053
:100168009001000090010000900100009001000043
:10017800900100003203000090010000900100008f
:100188009001000090010000900100009001000023
:100198009001000090010000900100009001000013
:1001a8009001000090010000900100009001000003
:1001b80090010000900100009001000090010000f3
:1001c80090010000900100009001000090010000e3
:1001d80090010000900100009001000090010000d3
:1001e80090010000900100009001000090010000c3
:0801f8009001000090010000dd
:020000040000fa
:10032800555400004d200000526f0000626f00001d
:10033800636f00006e200000323000003139000089
:10034800200d00000a00000059450000415200003d
:10035800004d00004f4e00005448000000440000cb
:10036800415900000020000020200000202000004b
:0c03780020200000000d00000a00000022
:020000040000fa
:100384000000fa000080eb0040158800301e2000b9
:1003940030168800000024006016880060002000e9
:1003a4009016880000102000c01688000000eb00a2
:1003b400f0168800d602a8000080fa0000000600ab
:1003c4000000fa0030002800000e880050f02000e1
:1003d400400e88000000eb00b00e88000000eb0027
:1003e400d00e8800f0e12400200e880010112100b6
:1003f400a00e88000080fa00000006000000fa0049
:100404000000eb00200888000000eb0000088800d2
:10041400d0b82500100888000421a900411020004c
:100424009140780000c3b30000c0700004e1b7003d
:100434005109200091407800f0c8b30000c060006a
:100444000044a00095e0b7008460a9008c60a80077
:1004540005e1a9000080fa00000006000000fa008f
:100464000000eb00800888000000eb0030088800e2
:10047400d0b82500600888001021a90001112000cf
:100484009140780000c3b30000c0700010e1b700d1
:10049400710920009140780080cfb30000c0600053
:1004a4000004a00097e0b70084c0a9008cc0a80095
:1004b40011e1a8001061a9000080fa000000060004
:1004c4000000fa000000eb00900888000000eb0038
:1004d40050088800104e2e00700888001221a900d0
:1004e400211120009140780000c3b30000c07000c7
:1004f40012e1b7007109200091407800f0c8b30000
:1005040000c060000044a00097e0b70084e0a900a8
:100514008ce0a80013e1a9000080fa0000000600a6
:100524000000fa000000eb00f00888000000eb0077
:10053400a008880040062000d00888001e21a900d9
:10054400e11120009140780000c3b30000c07000a6
:100554001ee1b700e109200091407800f0c8b30023
:1005640000c060000044a0009ee0b70086a0a9007f
:100574008ea0a8001fe1a9001e61a9000080fa0056
:1005840000000600801f78003400f80000002000fe
:10059400a00188000000fa008460a90010408000d7
:1005a4000000e80010408800cac2bf00704060002c
:1005b4000004e00002003200ca82a90001003700f2
:1005c400ca82a8000080fa003400f9004f007800c5
:1005d400004006003600f800809fbe00829fbe00e7
:1005e400849fbe00869fbe003400f80000002000f7
:1005f400a00188000000fa0084c0a9001040800017
:100604000000e80010408800920007000080fa0013
:100614003400f9004f03be004f02be004f01be007c
:100624004f00be003600f90000400600801f78002d
:100634003400f80000002000a00188000000fa0047
:1006440084e0a900004080000000e8000040880029
:100654000080fa003400f9004f00780000400600e2
:100664003600f800809fbe00829fbe00849fbe00bb
:10067400869fbe003400f80000002000a00188001e
:100684000000fa0086a0a9008d0007000080fa008f
:100694003400f9004f03be004f02be004f01be00fc
:1006a4004f00be003600f900004006000000fa00ca
:1006b400200c2000a01088000d42a9000ec2bf002b
:1006c400f043b2000ee2b7008109200091407800a7
:1006d400f0c8b30000c0600001c4b3000140700062
:1006e40098e0b7000e22a9008520a9008d20a8005b
:1006f4000de2a8000f42a8000080fa0000000600e6
:10070400801f78000000fa000ec2bf006240600043
:100714000004e000020032000e22a9000a003700a3
:100724000ec2bf00644060000004e00006003a000e
:100734000ec2bf00684060000004e00002003a00fe
:100744009010800016e8b7008520a9000080fa0008
:100754004f007800004006000200fa00000f780005
:10076400050037001e007800104078000000fb00f0
:100774001e0fe800060007001e00780010407800f5
:100784000004e000f7ff3a000080fa0000000600d1
:100794000200fa00000f78000fc2bf006140600041
:1007a4000004e000fcff32000cc2bf0066406000a1
:1007b400e64f500003003a001e00780080108800c5
:1007c40003003700f00f20001e0060008010880036
:1007d4000080fa00000006000000fa0000408000db
:1007e400e20f500005003a0040192800daff070024
:1007f40013e1a9000000eb00004088000080fa002b
:10080400000006000200fa0016c8bf008000fb00ca
:1008140010fa2f00008f4000104080009e0f5000ff
:1008240002003d0005e1a8000800370010408000e8
:100834009e0f500005003a0005e1a9000000eb00fe
:10084400104088000040eb0016e8b7000080fa0072
:10085400000006000000fa0016c8bf000000fb00fc
:10086400000040008000780000f42f0080804000e9
:1008740070408000808f50000b003400cac2bf005b
:10088400704060000004e00002003200ca82a90047
:1008940001003700ca82a800704080000000e80010
:1008a40070408800040037000000eb0070408800ae
:1008b4000040eb0016e8b7000080fa0000000600d4
:1008c4000000fa00804080000000e80080408800ba
:1008d40080408000fd0f500009003a0090408000e5
:1008e400e20f500006003a0010002000804088000b
:1008f400904080000000e800904088003f003700ee
:1009040080408000ff0f500012003a0090408000a9
:10091400e40f50000900320090408000e60f5000c0
:100924000600320090408000e90f500003003200be
:1009340090408000eb0f500006003a0010002000a9
:1009440080408800904080000000e80090408800cb
:100954002a0037008140800000022000808f500070
:1009640018003a0090408000e10f50000f00320060
:1009740090408000e30f50000c0032009040800053
:10098400e50f50000900320090408000e70f50004e
:100994000600320090408000e80f5000030032004f
:1009a40090408000ea0f500006003a00100020003a
:1009b40080408800904080000000e800904088005b
:1009c4000e0037008140800000022000808f50001c
:1009d4000a003a0090408000ec0f500007003a00f3
:1009e4001000200080408800100020009040880003
:1009f400a04080000000e800a0408800f01b280010
:100a040055ff070006c8bf000000fb0080108800e7
:100a140004c8bf000000fb0080108800a0408000d4
:100a2400e90f50000a003c0004c8bf000000fb00ae
:100a340080108800a1408000408020000080400099
:100a4400104078000000fb0080108800210037006f
:100a5400a0408000e90f50000e003400a040800048
:100a6400f30f50000b003c0005c8bf000000fb0062
:100a740080108800a0408000ea00500040802000e0
:100a840000804000104078000000fb0080108800c7
:100a940010003700a0408000f30f50000d00340018
:100aa400a0408000fd0f50000a003c0006c8bf00b3
:100ab4000000fb0080108800a0408000f40050007b
:100ac4004080200000804000104078000000fb00bf
:100ad40080108800701b28001fff070090408000d2
:100ae400e90f50000a003c0004c8bf000000fb00ee
:100af40080108800914080004080200000804000e9
:100b0400104078000000fb00801088001a003700b5
:100b140090408000eb0f500007003a0005c8bf006a
:100b24000000fb008010880005c8bf000000fb0027
:100b3400801088001000370090408000ea0f5000b9
:100b440007003a0005c8bf000000fb0080108800c1
:100b540004c8bf000000fb008010880006003700b6
:100b640005c8bf000000fb008010880006c8bf0055
:100b74000000fb0080108800701b2800f6fe0700b0
:100b840080408000e90f50000a003c0004c8bf0008
:100b94000000fb008010880081408000408020001d
:100ba40000804000104078000000fb0080108800a6
:100bb4003500370080408000e90f50000e003400fb
:100bc40080408000f30f50000b003c0005c8bf00bc
:100bd4000000fb008010880080408000ea00500084
:100be4004080200000804000104078000000fb009e
:100bf400801088002400370080408000f30f5000ec
:100c04000e00340080408000fd0f50000b003c00bb
:100c140006c8bf000000fb008010880080408000f0
:100c2400f400500040802000008040001040780014
:100c34000000fb0080108800130037008040800013
:100c4400fe0f500007003a0007c8bf000000fb0079
:100c54008010880004c8bf000000fb0080108800da
:100c64000900370080408000ff0f500006003a0062
:100c740007c8bf000000fb008010880005c8bf0043
:100c84000000fb00801088000080fa0000000600cd
:100c94000400fa00bafd0700c9fd0700d7fd0700ec
:100ca400eefd070006fe07001dfe07007ffe07009d
:100cb4000000eb00100798000000eb00000f780024
:100cc40000003700c4fe0700c8c2bf0061406000d6
:100cd4000004e00007003a001e0090000000e0005d
:100ce40004003a00100020001007980013e1a80047
:100cf40009003700c8c2bf00614060000004e00082
:100d0400050032001e009000e10f500002003a007e
:100d14000000eb0010079800c8c2bf0062406000ea
:100d24000004e00010003a001e00e0000e003a004b
:100d340010002000000f7800801a280086fe0700ab
:100d4400701b280084fe0700d01a280082fe0700ca
:100d5400701b280080fe0700301b28007efe070061
:100d64001fe1a800d7ff3700c8c2bf00624060007f
:100d74000004e000d3ff3200100020009e0f10009a
:100d8400d0ff3a000000eb00000f7800cdff3700e1
:020000040000fa
:100d9400000800001600000002000000000000002f
:100da4000030310032333400353637003839000032
:100db400001700000c0012000000000016080000dc
:0c0dc40002000000000000000000000021
:00000001FF
