:020000040000fa
:080000000002040000000000f2
:020000040000fa
:10040000af8020000ebf22000e0188000000000017
:100410000c000700005b2000010020001100070015
:10042000000020000000e000020032000000020096
:100430000000000014050200000000000040da0087
:100440000000fe004440a900200520000000e0005c
:100450000300320000002000a00188004440a800f2
:100460000000060091018800800078000000eb0089
:1004700015003700e280400032a0b4009101ba00bc
:10048000e280400032a0b4009102ba00e280400055
:1004900032a0b4000002eb00472bde00f507b200eb
:1004a000602ce10004003a000059eb008301e900f0
:1004b000fdff3e00040037006128e100010032002a
:1004c0000082eb00040007001101ba000200e00006
:1004d000e8ff3a00000006003159ba008301e90044
:1004e0000c0032002159ba008301e90008003200f3
:1004f0000400e00003003a00e280400032a0b400b3
:10050000f5ff370011d9ba008301e900faff3a007c
:100510008100e800e180400032a0b4000000060045
:080520000040da000000fe00bb
:020000040000fa
:1000080090020000900200009002000090020000a0
:100018009002000090020000900200009002000090
:100028009002000090020000900200002c030000e3
:100038009002000090020000900200008a03000075
:100048009002000090020000900200009002000060
:100058009002000090020000900200009002000050
:100068009002000090020000900200009002000040
:100078009002000090020000900200009002000030
:100088009002000090020000900200009002000020
:100098009002000090020000900200009002000010
:1000a8009002000090020000900200009002000000
:1000b80090020000900200009002000090020000f0
:1000c80090020000900200009002000090020000e0
:1000d80090020000900200009002000090020000d0
:1000e80090020000900200009002000090020000c0
:1000f80090020000900200009002000090020000b0
:10010800900200009002000090020000900200009f
:10011800900200009002000090020000900200008f
:10012800900200009002000090020000900200007f
:10013800900200009002000090020000900200006f
:10014800900200009002000090020000900200005f
:10015800900200009002000090020000900200004f
:10016800900200009002000090020000900200003f
:10017800900200009002000090020000900200002f
:10018800900200009002000090020000900200001f
:10019800900200009002000090020000900200000f
:1001a80090020000900200009002000090020000ff
:1001b80090020000900200009002000090020000ef
:1001c80090020000900200009002000090020000df
:1001d80090020000900200009002000090020000cf
:1001e80090020000900200009002000090020000bf
:0801f8009002000090020000db
:020000040000fa
:10020800900200009002000090020000900200009e
:10021800900200009002000090020000900200008e
:100228009002000090020000900200002c030000e1
:100238009002000090020000900200008a03000073
:10024800900200009002000090020000900200005e
:10025800900200009002000090020000900200004e
:10026800900200009002000090020000900200003e
:10027800900200009002000090020000900200002e
:10028800900200009002000090020000900200001e
:10029800900200009002000090020000900200000e
:1002a80090020000900200009002000090020000fe
:1002b80090020000900200009002000090020000ee
:1002c80090020000900200009002000090020000de
:1002d80090020000900200009002000090020000ce
:1002e80090020000900200009002000090020000be
:1002f80090020000900200009002000090020000ae
:10030800900200009002000090020000900200009d
:10031800900200009002000090020000900200008d
:10032800900200009002000090020000900200007d
:10033800900200009002000090020000900200006d
:10034800900200009002000090020000900200005d
:10035800900200009002000090020000900200004d
:10036800900200009002000090020000900200003d
:10037800900200009002000090020000900200002d
:10038800900200009002000090020000900200001d
:10039800900200009002000090020000900200000d
:1003a80090020000900200009002000090020000fd
:1003b80090020000900200009002000090020000ed
:1003c80090020000900200009002000090020000dd
:1003d80090020000900200009002000090020000cd
:1003e80090020000900200009002000090020000bd
:0803f8009002000090020000d9
:020000040000fa
:100528005075000074200000796f0000757200009b
:1005380020730000686f0000652000006f6e0000e7
:1005480020740000686500002072000061630000ec
:100558006b0d00000a000000536800006172000083
:1005680069660000206900007320000068610000cf
:100578006e640000736f00006d65000021210000ab
:10058800213f00000d0a00000053000075620000c2
:100598006d69000074200000796f0000757200001a
:1005a80020740000617300006b2000006f6e000073
:1005b80020740000696d0000652e00000d0a00001f
:0405c800000000002f
:020000040000fa
:1005cc000000fa000080eb00101888000080eb009f
:1005dc00201888000000eb0000168800e0ff2700c0
:1005ec00001788000080fa00000006000000fa00e6
:1005fc0005e1a9000421a90004c1a90041102000b3
:10060c009140780000c3b30000c0700004e1b70053
:10061c000000eb0000088800001220001008880081
:10062c00510a200091407800f0c8b30000c060006f
:10063c000044a000a5e0b7008460a9009460a80065
:10064c0005e1a8000080fa00000006003600f80062
:10065c00809fbe00829fbe00849fbe00869fbe000e
:10066c000000fa00c4c2bf000044b2000004e00065
:10067c0002003200c4c2a90001003700c4c2a800a5
:10068c00c60007008460a9000080fa004f03be007a
:10069c004f02be004f01be004f00be003600f900f5
:1006ac00004006000000fa0011e1a9001021a90089
:1006bc0010c1a900011120009140780000c3b300c3
:1006cc0000c0700010e1b7000000eb00300888009b
:1006dc00c03f220060088800710a20009140780019
:1006ec00f0c8b30000c0600001c2b300014070004c
:1006fc00a7e0b70084e0a90094e0a80011e1a800ed
:10070c000080fa00000006003600f800809fbe0052
:10071c00829fbe00849fbe00869fbe000000fa0030
:10072c003000070084e0a9000080fa004f03be00ef
:10073c004f02be004f01be004f00be003600f90054
:10074c00004006000400fa00e3c2bf0061406000f4
:10075c000004e00006003a001e0090000000e000db
:10076c0003003a0010002000100798000900370021
:10077c00e3c2bf00614060000004e00005003200ed
:10078c001e009000e10f500002003a000000eb0048
:10079c0010079800e3c2bf00624060000004e00054
:1007ac0005003a001e00e00003003a001000200093
:1007bc00000f780009003700e3c2bf006240600000
:1007cc000004e00005003200100020009e0f100015
:1007dc0002003a000000eb00000f78000080fa00e5
:1007ec00000006000000fa00004080000000e80055
:1007fc000040880000408000e20f500021003a00c9
:10080c000000eb0000408800104080000000e80071
:10081c0010408800412c20009140780000c8b300a3
:10082c0000c060000004e00002003200c4e2a90035
:10083c0001003700c4e2a80010408000e10f500016
:10084c0010003a000000eb001040880020408000af
:10085c000000e8002040880022408000907f2400a7
:10086c00110009000200d8006008880061088000af
:10087c00f0082000808f500002003e00000920008c
:10088c00600888000080fa00000006000000fa00f2
:10089c00700120004011880021e2a8002342a8002a
:1008ac000080fa00000006000000fa00300028006a
:1008bc000020880023c4a8004006200020208800c7
:1008cc000000eb00302188000080fa0000000600d8
:1008dc000200fa00000f780023c2bf0061406000e4
:1008ec000004e000fcff320020c2bf006640600044
:1008fc00e64f500003003a001e00780020118800db
:10090c0003003700f00f20001e006000201188004b
:10091c000080fa00000006000200fa00000f7800c8
:10092c00050037001e007800104078000000fb0026
:10093c001e0fe800e6ff07001e007800104078004c
:10094c000004e000f7ff3a000080fa000000060007
:10095c000000fa0022c2bf00624060000004e00008
:10096c00020032002222a9000a00370022c2bf0076
:10097c00644060000004e00006003a0022c2bf00a0
:10098c00684060000004e00002003a003011800072
:10099c0008e8b7000080fa00000006000000fa002a
:1009ac00304080000000e80030408800314080007a
:1009bc0030062000808f500004003c003021800065
:1009cc000000e80030218800120037003140800020
:1009dc0030062000808f5000080034003140800029
:1009ec00700c2000808f500004003c0030218000ef
:1009fc000000e900302188000600370031408000fb
:100a0c00800c2000808f500002003a000000eb00a8
:100a1c00304088000080fa00000006000400fa0054
:100a2c000000eb00100798000000eb00000f7800ae
:100a3c00e3fe070095ff07009bff0700ebfe070096
:100a4c0018ff07000000eb00004088000000eb00de
:100a5c00104088000000eb002040880000003700a8
:100a6c00e402a800baff07008180200091407800c2
:100a7c0010c4b30080cf500004003a00e402a90077
:100a8c0040292800a4ff07000800370081802000bf
:100a9c009140780020c4b30080cf500003003a008e
:100aac00e402a900002b28009bff0700e3c2bf0053
:100abc00614060000004e00008003a001e00900055
:100acc000000e00005003a0010002000100798001c
:100adc00902c280090ff070009003700e3c2bf00ec
:100aec00614060000004e000050032001e00900030
:100afc00e10f500002003a000000eb0010079800d4
:100b0c00e3c2bf00624060000004e00007003a004e
:100b1c001e00e00005003a0010002000000f7800d5
:100b2c00902c28007cff0700cdff3700e3c2bf00ec
:100b3c00624060000004e000c9ff32001000200099
:100b4c009e0f1000c6ff3a000000eb00000f78006b
:040b5c00c3ff37009c
:020000040000fa
:100b60000008000008000000020000000000000073
:100b70000000000000000000080800000200000063
:080b800000000000000000006d
:00000001FF
