:020000040000fa
:080000000001040000000000f3
:020000040000fa
:100200004f8020000eff20000e018800000000003b
:100210000c000700407b20000100200011000700b7
:10022000000020000000e000020032000000020098
:100230000000000042070200000000000040da0059
:100240000000fe004440a900000020000000e00083
:100250000300320000002000a00188004440a800f4
:100260000000060091018800800078000000eb008b
:1002700015003700e280400032a0b4009101ba00be
:10028000e280400032a0b4009102ba00e280400057
:1002900032a0b4000002eb00472bde00f507b200ed
:1002a000602ce10004003a000059eb008301e900f2
:1002b000fdff3e00040037006128e100010032002c
:1002c0000082eb00040007001101ba000200e00008
:1002d000e8ff3a00000006003159ba008301e90046
:1002e0000c0032002159ba008301e90008003200f5
:1002f0000400e00003003a00e280400032a0b400b5
:10030000f5ff370011d9ba008301e900faff3a007e
:100310008100e800e180400032a0b4000000060047
:100320000040da000000fe0003f0a200889fbe003b
:100330008a9fbe008c1f78005d00070064003300b8
:100340006450e1004f0032006420e10052003200ae
:1003500003826c0007003b000905d0000306d000b3
:10036000820f54000c065d000200390002003200ca
:1003700089017800030678008582550004003d005d
:100380000003fd008103fd008502ea008b85420029
:10039000840f720002003b0060001000e080180033
:1003a0006011b8000005eb007a28e1000a0039006e
:1003b00006007800c75ddd00f707b2008780750092
:1003c0002d003700828171000a017800610560000c
:1003d0008180d1000080d3008502e900f9ff3b0055
:1003e000060440008784480002003b0060041400bb
:1003f000e0841c000988a300070032008a81710094
:1004000082817100610164008904d1000884d300f5
:100410008b05e800170037000978a30013003a00a5
:100420000b00e000130034008b05e90008044400d1
:1004300089844c000a4474000978a3000d003a0036
:100440000b00e000070034008b05e90008044400bd
:1004500089844c0001003a000b0020000978a300b9
:10046000f7ff32000001eb000200370082817100cb
:100470000a017800260007000cf0a70001f0a00098
:100480001c0037006420e10002003a00838f6c00fa
:100490001c0033000801be000200be00150037003a
:1004a0001400200040003700f4ff2f003e0037000a
:1004b0000004be00570007000003be000405be0094
:1004c0000200be0053000700844f750000000600c4
:1004d0000200be006450e100050036006420e10027
:1004e000020036000968a30001003a000800be00bf
:1004f0000160a0004f0678004f05be004f04be000b
:1005000000000600f0ff2f00f1ff2700f9ff370081
:1005100081002000618055000b003d000b00200091
:1005200061fe2f000100e1001d0034008281710096
:10053000610164008904d1000884d3000000e80050
:10054000faff3a00710020006100640003007000af
:10055000020060000900320061044400e0844c00a5
:100560000988a500050032008b05e8006808e10055
:1005700002003a008904d1000884d300f20f200061
:100580000258e10005003d00c75ddd00f907b2003b
:100590008980750008007800000006000bf827002d
:1005a0008b00780000000500889fbe008a9fbe0077
:1005b000841f7800beff07004f0078001100330051
:1005c000f0ff2f00838f6c0006003b0004056500e0
:1005d0000a00a7000800370009f0a600100020005c
:1005e00008003700820f5400838f5c00030039003d
:1005f0001000200001003e000000200009f0a700cc
:100600000000ea004f05be004f04be000000e000fd
:1006100000000600c70ade00f107b200f50fb200c5
:1006200008003200e1cf4200020032000170a00059
:1006300024000500810f700001003200040805004d
:1006400044000500810f700002003a00140005000c
:100650008502e9000000400081c04800fcff3b002b
:080660000170a0002400050058
:020000040000fa
:1000080090010000900100009001000090010000a4
:100018009001000090010000900100009001000094
:1000280090010000900100009001000036040000db
:100038009001000090010000580400007a040000bc
:100048009001000090010000900100009001000064
:100058009001000090010000900100009001000054
:100068009001000090010000900100009001000044
:1000780090010000ae040000900100009001000013
:100088009001000090010000900100009001000024
:100098009001000090010000900100009001000014
:1000a8009001000090010000900100009001000004
:1000b80090010000900100009001000090010000f4
:1000c80090010000900100009001000090010000e4
:1000d80090010000900100009001000090010000d4
:1000e80090010000900100009001000090010000c4
:0800f8009001000090010000de
:020000040000fa
:1001080090010000900100009001000090010000a3
:100118009001000090010000900100009001000093
:1001280090010000900100009001000036040000da
:100138009001000090010000580400007a040000bb
:100148009001000090010000900100009001000063
:100158009001000090010000900100009001000053
:100168009001000090010000900100009001000043
:1001780090010000ae040000900100009001000012
:100188009001000090010000900100009001000023
:100198009001000090010000900100009001000013
:1001a8009001000090010000900100009001000003
:1001b80090010000900100009001000090010000f3
:1001c80090010000900100009001000090010000e3
:1001d80090010000900100009001000090010000d3
:1001e80090010000900100009001000090010000c3
:0801f8009001000090010000dd
:020000040000fa
:100668000000fa000080eb0040158800301e2000d2
:100678003016880000002400601688006000200002
:100688009016880000102000c01688000000eb00bb
:10069800f0168800d602a8000080fa0000000600c4
:1006a8000000fa0030002800000e880050f02000fa
:1006b800400e88000000eb00b00e88000000eb0040
:1006c800d00e8800f0e12400200e880010112100cf
:1006d800a00e88000080fa00000006000000fa0062
:1006e8000000eb00200888000000eb0000088800ec
:1006f800f08f2000100888000421a9004110200074
:100708009140780000c3b30000c0700004e1b70056
:100718005109200091407800f0c8b30000c0600083
:100728000044a00095e0b7008460a9008c60a80090
:1007380005e1a8000080fa00000006000000fa00a9
:100748000000eb00800888000000eb0030088800fb
:10075800f08f2000600888001021a90001112000f6
:100768009140780000c3b30000c0700010e1b700ea
:10077800710920009140780080cfb30000c060006c
:100788000004a00097e0b70084c0a9008cc0a800ae
:1007980011e1a8001061a9000080fa00000006001d
:1007a8000000fa000000eb00900888000000eb0051
:1007b80050088800a00e2e00700888001221a90099
:1007c800211120009140780000c3b30000c07000e0
:1007d80012e1b7007109200091407800f0c8b30019
:1007e80000c060000044a00097e0b70084e0a900c2
:1007f8008ce0a80013e1a9000080fa0000000600c0
:100808000000fa000000eb00f00888000000eb0090
:10081800a008880080702100d00888001e21a90047
:10082800e111200091407800f0ccb30000c06000d6
:100838001ee1b700e109200091407800f0c8b3003c
:1008480000c060000044a0009ee0b70086a0a90098
:100858008ea0a8001fe1a9001e61a9000080fa006f
:1008680000000600801f78003400f8000000200017
:10087800a00188000000fa008460a900cac2bf0075
:10088800704060000004e00002003200ca82a90043
:1008980001003700ca82a8000080fa003400f9007d
:1008a8004f00780000400600801f78003400f800f0
:1008b80000002000a00188000000fa0084c0a90000
:1008c800d6c2bf00614060000004e00002003200b0
:1008d800d602a90001003700d602a8000080fa005d
:1008e8003400f9004f007800004006003600f80098
:1008f800809fbe00829fbe00849fbe00869fbe0070
:100908003400f80000002000a00188000000fa0070
:1009180084e0a9000040800011408000020020000f
:1009280003f823007ffe070000408800114088007c
:10093800450007000080fa003400f9004f03be00ac
:100948004f02be004f01be004f00be003600f90046
:10095800004006003600f800809fbe00829fbe005f
:10096800849fbe00869fbe003400f800000020006f
:10097800a00188000000fa0086a0a900ab000700cb
:10098800df0007000080fa003400f9004f03be00c2
:100998004f02be004f01be004f00be003600f900f6
:1009a800004006000400fa00000f78001e007800de
:1009b800100798001e009000e10f5000110032004f
:1009c8001e009000e10f500004003c001e00900043
:1009d8000000e00008003200120037001e009000fe
:1009e800e20f50000a0032001e009000e30f500092
:1009f8000a0032000b003700f08f200060088800e2
:100a080008003700e01f2100600888000500370053
:100a1800d0af2100600888000200370011e1a9006a
:100a2800d602a8000080fa00000006000000fa00c4
:100a380005e1a90011e1a90013e1a8001fe1a80040
:100a48000080fa00000006000600fa00004080005e
:100a58001140800002002000030824008efe0700d9
:100a68000000e0000100350003003700ca82a8003a
:100a7800d602a9006b0037000040800011408000ba
:100a88000041eb00524798000200200003082400b0
:100a980083fe07000000e00001003d00020037006f
:100aa80010c0b300504798005e4090000004a200b8
:100ab8000004e00013003a0000408000114080006c
:100ac8000041eb0042479800020020000312240076
:100ad80071fe07000000e000010035000200370049
:100ae80010c0b300404798004e4090000004a20098
:100af8000004e00003003a00ca82a900d602a80058
:100b08004800370000408000114080000041eb00a1
:100b180032479800020020000312240060fe0700fc
:100b28000000e00001003d000200370010c0b300e3
:100b3800304798003e4090000004a2000004e00006
:100b480013003a0000408000114080000041eb0093
:100b58002247980002002000031924004efe0700d7
:100b68000000e000010035000200370010c0b300ab
:100b7800204798002e4090000004a2000004e000e6
:100b880003003a00ca82a800d602a900250037004f
:100b980000408000114080000041eb00124798009f
:100ba80002002000031924003dfe07000000e000b9
:100bb80001003d000200370010c0b3001047980044
:100bc8001e4090000004a2000004e00013003a0058
:100bd80000408000114080000041eb00024f780087
:100be80002002000031f24002bfe07000000e00085
:100bf800010035000200370010c0b300004f780034
:100c08001e4078000004a2000004e00003003a003f
:100c1800ca82a900d602a80002003700ca82a8002a
:100c2800d602a9000080fa00000006000200fa00bf
:100c3800100020007d000700004080001140800067
:100c4800020020000308240013fe07000000e00053
:100c58000100350003003700400d2300b00e880066
:100c68002500370000408000114080000041eb0063
:100c780012479800020020000308240008fe07001d
:100c88000000e00001003d000200370010c0b30082
:100c9800104798001e4090000004a2000004e000e5
:100ca80013003a0000408000114080000041eb0032
:100cb800024f78000200200003182400f6fd070008
:100cc8000000e000010034000200370010c0b3004b
:100cd800004f78001e4078000004a2000004e000e5
:100ce80003003a0000e22400b00e8800020037003a
:100cf8000000eb00b00e88000080fa00000006003b
:100d08000200fa00100020003400070000408000b4
:100d1800114080000200200003102400defd0700bf
:100d28000000e0000100350004003700d00e80000c
:100d38000000e800d00e8800260037000040800040
:100d4800114080000041eb0012479800020020008b
:100d580003102400d2fd07000000e00001003d0060
:100d68000200370010c0b300104798001e409000e2
:100d78000004a2000004e00014003a0000408000d3
:100d8800114080000041eb00024f78000200200073
:100d980003182400c0fd07000000e0000100350032
:100da8000200370010c0b300004f78001e407800e2
:100db8000004a2000004e00004003a00d00e800005
:100dc8000000e900d00e8800020037000000eb00a8
:100dd800d00e88000080fa00000006000200fa0029
:100de800000f7800100020009e0f100003003a004a
:100df800dca2a800e2c2a9000a0037000080eb00cc
:100e08009e0f100003003a00dca2a900e2c2a8006d
:100e1800040037001e00e00002003a00dca2a9002e
:100e2800e2c2a9000080fa00000006000200fa00f1
:100e3800000f7800100020009e0f100003003a00f9
:100e4800dc22a900dc42a8000a0037000080eb0081
:100e58009e0f100003003a00dc22a800dc42a90023
:100e6800040037001e00e00002003a00dc22a9005e
:100e7800dc42a9000080fa00000006000600fa0023
:100e8800f7fd070006fe070014fe07002bfe07000b
:100e980043fe07005afe07000000eb0020079800f9
:100ea8000000eb00100798000000eb00000f78002e
:100eb800000037001e007800bafe0700c8c2bf0055
:100ec800614060000004e00007003a002e00900036
:100ed8000000e00004003a001000200020079800fd
:100ee8001e0fe80009003700c8c2bf00614060005b
:100ef8000004e000050032002e009000e10f5000d1
:100f080002003a000000eb0020079800c8c2bf00aa
:100f1800624060000004e00007003a001e009000f4
:100f28000000e00004003a001000200010079800bc
:100f3800befe0700dfff3700c8c2bf006240600086
:100f48000004e000dbff32001e009000e10f5000bb
:100f5800d8ff3a000000eb0010079800d5ff3700d3
:020000040000fa
:100f6800000800000400000002000000000000006b
:080f7800000000000000000071
:00000001FF
